:10000000020082C00078B10000D8FCD00022C000FD
:10001000C001792D78A6D8FED9FADAF6D001D00041
:1000200022D293120003C29322D291020033C291D2
:10003000020033A2E792B5A2E692B4A2E592B3A27F
:10004000E492B2120021A2E392B5A2E292B4A2E13C
:1000500092B3A2E092B212002122C293C2927433F0
:1000600012002E743312002E743212002E742812D5
:10007000002E740C12002E740112002E7A0212004F
:100080000E2275817F12005A748012002E744B125A
:100090000029748112002E74491200297482120002
:1000A0002E744E120029748312002E7447120029F8
:1000B000748412002E7453120029748512002E7459
:1000C00054120029748612002E744F12002974876E
:1000D00012002E744E120029748912002E744312DD
:1000E0000029748A12002E7448120029748B1200A1
:1000F0002E7445120029748C12002E744E120029A1
:10010000748D12002E742112002974C012002E74F6
:100110003212002974C112002E743512002974C2E3
:1001200012002E743012002974C312002E74321281
:10013000002974C412002E743812002974C51200EC
:100140002E743512002974C612002E743412002940
:1001500074C712002E7439120029B2B774931200BA
:100160002E743B120029749412002E742912002957
:100170007AC812000E749312002E743A1200297479
:100180009412002E74291200297AC812000E741AD3
:0501900012002E80C5E5
:00000001FF
