:1000000002000375815C120145E582600302006F06
:10001000780079007A007B007C007D00EC4D601C4C
:1000200088828983E493A3A882A9838A828B83F040
:10003000A3AA82AB831CBCFFE31D80E07582007520
:1000400083007C007D00EC4D600AE4F0A31CBCFF43
:10005000F51D80F27582007583007C007D00EC4DFB
:10006000600AE4F0A31CBCFFF51D80F212014412EB
:1000700003B880FE1B5B324A0045464D3820506570
:1000800072696F64206D6561737572656D656E74FC
:100090002061742070696E2050302E312075736994
:1000A0006E672054696D657220302E0A46696C6552
:1000B0003A2025730A436F6D70696C65643A202598
:1000C000732C2025730A0A00433A5C5573657273DA
:1000D0005C4B5C4465736B746F705C636F757273BB
:1000E00065735C3372642059656172207465726D4A
:1000F000325C454C45433239315C6C6162345C534F
:1001000075626D69745C6C6162342E630046656271
:1001100020323420323032300031323A30323A3408
:10012000350053617620616E64204B696E6773748D
:100130006F6E004361702E3D252E3366207546207C
:10014000202020002275A7007597DE7597AD43FF2C
:100150008075EF0275A71075C12075A70075A900FD
:1001600075A900E5A930E7FB75A90375A903E5A901
:1001700030E7FB43A41075E10175E20075E34075BB
:100180009810858E8E758DE6858D8B53890F4389EA
:1001900020D28ED29975820022AA82438E40759217
:1001A000B87593FF8592948593957591047B00C3F0
:1001B000EB9A500BE59130E7FB53917F0B80F07584
:1001C000910022AA82AB83BA0004BB00012275828F
:1001D000F9C002C0031201997582F9120199758262
:1001E000F91201997582FA120199D003D0021ABA54
:1001F000FF011B80D25389F0438901C28C22D2A512
:10020000758228120199C2A522AA828AE0A2E792E9
:10021000A1A2E692A2A2E592A3A2E492A4C0021235
:1002200001FE758228120199D0028AE0A2E392A110
:10023000A2E292A2A2E192A3A2E092A40201FEAAEB
:1002400082D2A68A821202099000020201C3AA8207
:10025000C2A68A821202099000050201C3C2A590BB
:1002600000141201C375823312024E7582331202DA
:100270004E75823212024E75822812024E75820C21
:1002800012024E75820112024E9000140201C3AA9E
:1002900082AB83ACF07402B523047DC080027D8004
:1002A0008D82C002C003C00412024E9000051201EC
:1002B000C3D004D003D0027D007E00ED2AFFEE3BC8
:1002C000F88C018F82888389F0120627FF60208FC7
:1002D00082C002C003C004C005C00612023FD0069F
:1002E000D005D004D003D0020DBD00CF0E80CC309D
:1002F00000248D028E03C3EA9410EB648094805036
:1003000015758220C002C00312023FD003D0020A3A
:10031000BA00E30B80E02285822685832785F028BA
:10032000E4F529F52AE52424FFFFE52534FFF879D3
:10033000007A00C3E99FEA648088F063F08095F05A
:100340005059C002C007C000C001120780AB82D064
:1003500001D000D007D002BB0A028003BB0D1DE50F
:10036000292526FCE52A3527FDAE288C828D838E33
:10037000F0E4120793852982852A8322E92526FC49
:10038000EA3527FDAE288C828D838EF0EB12079321
:1003900009B900010A89298A2A8098E5292526FABF
:1003A000E52A3527FBAC288A828B838CF0E4120780
:1003B000938524828525832212025D1201F5900126
:1003C000F41201C37474C0E07400C0E07480C0E033
:1003D00012075F1581158115817419C0E07401C081
:1003E000E07480C0E0740DC0E07401C0E07480C0AF
:1003F000E074C8C0E07400C0E07480C0E07479C0EC
:10040000E07400C0E07480C0E012075FE58124F46E
:10041000F581758A00758C00C28D7522002081FDE2
:100420003081FDD28C308109108D0280F805228048
:10043000F4208109108D0280F8052280F4C28C8599
:1004400022821206E6AA82AB83ACF0FDC002C00392
:10045000C004C00590000075F0807447120643AADE
:1004600082AB83ACF0FDE58124FCF581858C82C0F4
:1004700002C003C004C0051206E6AE82AF83A8F036
:10048000F9C006C007C000C00190000075F080747C
:1004900043120643AE82AF83A8F0F9E58124FCF550
:1004A00081D005D004D003D002C006C007C000C070
:1004B000018A828B838CF0ED1206F1AA82AB83ACA9
:1004C000F0FDE58124FCF581AE8A7F008E828F836A
:1004D000C002C003C004C005120841AE82AF83A8A9
:1004E000F0F9D005D004D003D002C006C007C00088
:1004F000C0018A828B838CF0ED1206F1AA82AB8355
:10050000ACF0FDE58124FCF581C002C003C004C04D
:100510000590F4FC75F0327434120643AA82AB8362
:10052000ACF0FDE58124FCF581C002C003C004C02D
:10053000059051EC75F0B8743F120643AA82AB8364
:10054000ACF0FDE58124FCF581E4C0E074C0C0E0BE
:1005500074B7C0E07445C0E08A828B838CF0ED12E2
:10056000084EAA82AB83ACF0FDE58124FCF581C086
:1005700002C003C004C0057422C0E07401C0E0746E
:1005800080C0E0742BC0E07400C0E07440C0E01292
:1005900007FBE58124FAF581752302C20090002B48
:1005A00075F04012028F90240075F07474491206A1
:1005B00043AA82AB83ACF0FDE58124FCF581C00247
:1005C000C003C004C005C002C003C004C00574332A
:1005D000C0E07401C0E07480C0E0742BC0E074001F
:1005E000C0E07440C0E01207FBE58124F6F5817598
:1005F0002301C20090002B75F04012028F7433C0AB
:10060000E07401C0E07480C0E0742BC0E07400C0EE
:10061000E07440C0E01207FBE58124F6F58190000C
:10062000641201C302041220F71430F6148883A860
:100630008220F507E6A88375830022E280F7E49321
:1006400022E0221209EFBC000302098EEF60FA30AB
:10065000D502B2D1E583B4FF030209A4E582B4FF59
:10066000030209A4258340072482400B02098E243B
:10067000831450030209A4F582EA8DF0A4A8F0EADD
:100680008EF0A428F8E435F0F9EB8DF0A428E935D4
:10069000F0F9E433CA8FF0A429F9EA35F0FAEBF85F
:1006A0008EF0A429F9EA35F0FAE433FBEC8DF0A4DE
:1006B00029F9EA35F0FAE43BFBE88FF0A42AFAEBDB
:1006C00035F0FBE433CCFD8EF0A42AFAEB35F0FBD9
:1006D000E43CFCED8FF0A42BFBEC35F0FC20E703B1
:1006E0001209BC02096DE4AC82FBFAF97486020AB5
:1006F000261209EF7900E583B58202800D500312BE
:100700000A30E583C39582120A4AE5D0C465D02039
:10071000E117EA2DFAEB3EFBEC3FFC5009740112A5
:100720000A4AEC4480FC02096DC3EA9DFAEB9EFB89
:10073000EC9FFC500FC3E499F9E49AFAE49BFBE4C4
:100740009CFCB2D11209BC02096D021419858249C0
:1007500085834A85F04B85104C90074A020E6CC089
:1007600008858108E50824FBF54CE50824FBF8869C
:100770004908864A08864B90074A120E6CD0082218
:1007800010980280FBAA998A82C002121419D00222
:100790008A822220F71030F6118883A88220F5077C
:1007A000F6A88375830022F280F7F022AA82AB09B3
:1007B000AC0AAD0B8B828C838DF0EA12079305098E
:1007C000E4B50902050A2285820985830A85F00BB2
:1007D000850C49850D4A850E4B850F4C9007AC1250
:1007E0000E6CAA82AB83AC09AD0AAE0B8C828D83F2
:1007F0008EF0E41207938A828B8322C008858108D9
:10080000E50824F8F54CE50824FBF8860908860A73
:1008100008860BE50824F8F8864908864A08864BBE
:100820009007AC120E6CAA82AB83AC09AD0AAE0B7A
:100830008C828D838EF0E41207938A828B83D0089A
:1008400022AC83AB827A007900748E0214371209CD
:10085000EF30D502B2D1BF0009BC00030209B102DA
:1008600009A4BC000302098EE583B4FF0BE582B442
:10087000FF030209B102098EE582B4FF030209A455
:10088000C395835007247F400B02098E24801450A7
:10089000030209A4C0E0E4CCCBCAF98D118E128FFB
:1008A00013EF54F0C4F5147583068514F0EB84F54A
:1008B00082E9C4F9EAC4FAEBC4FBEC540FC4780330
:1008C000D6FC18EBD6FB18EAD6FA8582F0EDA4A880
:1008D000F0FD8582F0EEA428FEE435F0F88582F084
:1008E000EFA428FFE435F0F8E99DF9EA9EFAEB9FC2
:1008F000FBEC98FCAD11AE12AF1330E7101582E996
:100900002DF9EA3EFAEB3FFBE43CFC80EDC082D5DA
:100910008398C3E933F9EA33FAEB33FBEC33FCC3D6
:10092000E99DEA9EEB9FEC9400B3E413F9D002D06A
:10093000E0C44AFAD003D0E0C44BFBD004D0E0F5C9
:10094000F0540FC44CFCD082158230F40FD3EC135A
:10095000FCEB13FBEA13FAE913F90582E930E70A25
:1009600074012AFAE43BFBE43CFC020985B98003EC
:10097000EA13B34010EA2401FAE43BFBE43CFC50E8
:10098000047C800582BC000EBB000BBA0008E4F5B5
:10099000F0F583F58222A2D1E582138CF092F78BD9
:1009A000838A8222E4F583F58275F080F4A2D11364
:1009B00022E4F583F58275F0C0747F227804EC7030
:1009C00011E58224F8500AF582E4C9CACBFCD8EFBD
:1009D00022EC7820058220E713D5820122C3E93377
:1009E000F9EA33FAEB33FBEC33FCD8EA158222AA9E
:1009F00082AB83A2F73392D16002D2F7F582ACF0DA
:100A0000E58124F9F8E6FD08E6FE0886F008E6A28E
:100A1000F73392D56002D2F7F583AFF022FCABF04A
:100A2000AA83A982749EC2D1F5821209BC02096D03
:100A3000E582C583F582A2D133A2D592D11392D596
:100A4000ECCFFCEBCEFBEACDFA226040F8258250D9
:100A50000274FFF582E824F8501ECCCBCAF9E4CC2E
:100A600024F85014CBCAF9E4CB24F8500BCAF9E4AB
:100A7000CA24F8500379002224086010F8C3EC134C
:100A8000FCEB13FBEA13FAE913F9D8F122AA8274FA
:100A90009EC0E0740AC0E0C03BC03C8A822205428E
:100AA000E4B54202054322AA8274302AFA24C650D1
:100AB0000A74072AFA3001034302208A82020A8D4F
:100AC000E582FAC4540FF582C002120AA7D002745C
:100AD0000F5AF582020AA7AA3DAB3EAC3FAD40AE2D
:100AE00041754820EE2EFEED235401FF4206EA2A0E
:100AF000FAEB33FBEC33FCED33FDC3EE95444008D9
:100B0000EEC39544FE430201D548D98A3D8B3E8C05
:100B10003F8D408E41227859E624D075F00AA4FA20
:100B2000785AE624D02AFA78588603BB2D04C3E409
:100B30009AFA754401C3E464808AF063F08095F00A
:100B400050297548038A0374F62548401C0544E57E
:100B50004814244DF8E548244DF98704A604772E5F
:100B60001BEBFA6004054880DE8B02EA30E70D7863
:100B70004E8603784FA603784E762E0AE546600A25
:100B8000E54604FB2544F5448005300C0205447815
:100B90004D8603E4BB2D0104FB70062007033008DB
:100BA000020544300503020C5D300657EB600C75FE
:100BB000822DC002120A8DD002801C30070C758273
:100BC0002BC002120A8DD002800D30080A758220D7
:100BD000C002120A8DD002784E8604BC2E0C75829B
:100BE00030C002120A8DD0021545AC451545C3E54B
:100BF000449C4003020CA1758230C002120A8DD0C1
:100C00000280E7AC451545C3E5449C500C75822035
:100C1000C002120A8DD00280EA784D8604BC2D0CE9
:100C200075822DC002120A8DD002801C30070C750F
:100C3000822BC002120A8DD002800D30080A758204
:100C400020C002120A8DD002784E8604BC2E527546
:100C50008230C002120A8DD00215458044EB600E2E
:100C600075822DC002120A8DD002154580203007F2
:100C70000E75822BC002120A8DD0021545800F30EE
:100C8000080C758220C002120A8DD0021545784EDC
:100C90008603BB2E0C758230C002120A8DD002155D
:100CA00045754801C20EE548244DF88603BB45034F
:100CB000020D5EBB2E348A03C3E464808BF063F0C4
:100CC0008095F0500F758230C003120A8DD0031B3F
:100CD0008B0280E48B02D20EE5467038200C0302B2
:100CE0000D5E75822E120A8D8074300E278A03EBFA
:100CF00030E71FC3E464808546F063F08095F050D0
:100D00000C758230C003120A8DD00315460B8B027E
:100D100080DD8B02300E0EC3E464808546F063F004
:100D20008095F05021E548244DF886038B82C0025F
:100D3000120A8DD002300E0EE548244DF88603BB12
:100D40002E02800215461545C3E464808546F06393
:100D5000F08095F04003200E050548020CA6C3E480
:100D600064808546F063F08095F0500A75823012F9
:100D70000A8D154680E830050FAA451545EA60083A
:100D8000758220120A8D80F122E5467003300C0D29
:100D900074072546FAE545C39AF5458006E54524DE
:100DA000FAF545754800784D8602BA2B0F20070CDE
:100DB000784D76202008057548010545200519AABB
:100DC00045C3E464808AF063F08095F0500A758230
:100DD00020120A8D154580E7C20EE548244DF8869D
:100DE00002BA00028069BA451F3001027665C3E489
:100DF00064808546F063F08095F0500A7582301269
:100E00000A8D154680E8D20EC3E5489402E433FA11
:100E10007014EA700EC3E464808546F063F0809538
:100E2000F04003300E16E548244DF886028A8212FF
:100E30000A8DE54824FD50121546800E7402B5480F
:100E400009300C0675822E120A8D0548020DDA3023
:100E50000519AA45C3E464808AF063F08095F050D8
:100E60000A758220120A8D154580E72285823B850E
:100E7000833CE4F542F543AA49AB4AAC4B8A828BEA
:100E8000838CF0120627FD74012AF549E43BF54AEC
:100E90008C4BEDFA7003021412BA2502800302147F
:100EA0000AC205C206C207C208C209C20AC20BC2F0
:100EB0000CC202C203C2047544007545007546FFAA
:100EC000AB49AC4AAD4B8B828C838DF0120627FA6E
:100ED000A3AB82AC838B498C4A8D4BBA25078A829F
:100EE000120A8D80928A06BE3000402E8A06EE24B9
:100EF000C6402774FFB54613E54575F00AA4FEEA1F
:100F000024D02EF54570BFD20680BBE54675F00AA9
:100F1000A4FEEA24D02EF54680ACBA2E0A74FFB5A2
:100F200046A4754600809F8A06BE6100400E8A0670
:100F3000EE248540075302DFD2018002C201BA20AD
:100F4000028075BA2303020FC7BA2A03020FCCBA74
:100F50002B02805FBA2D028055BA4202805FBA43ED
:100F600003021011BA440302114CBA450302116680
:100F7000BA4603021162BA470302116ABA49030270
:100F8000114CBA4C02803BBA4E0302116EBA4F03A9
:100F9000021153BA50030210E5BA5303021035BAD6
:100FA0005503021158BA580302115D021198D20577
:100FB000020EC6D207020EC6D208020EC6D20A021E
:100FC0000EC6D20B020EC6D20C020EC674FFB54678
:100FD00020300A0BE54C14F8884C8645020EC6E515
:100FE0004C24FEF8884C8606088607188E45020EAB
:100FF000C6300A0BE54C14F8884C8646020EC6E54E
:101000004C24FEF8884C8606088607188E46020E89
:10101000C6300A0AE54C14F8884C8602800FE54C6D
:1010200024FEF8884C8603088604188B028A8212F4
:101030000A8D02119DE54C24FDF8884C8603088634
:101040000408860518188B3D8C3E8D3F8B828C835F
:101050008DF012157AAB82AC838B4774FFB54603D3
:1010600085474620051DC3E54795455016E545C310
:101070009547F545AB451545EB6008758220120A8A
:101080008D80F1853D82853E83853FF0120627FBEA
:10109000FA6029AB461546C3E464808BF063F080A8
:1010A00095F050188A82120A8DAB3DAC3EAD3F0BD5
:1010B000BB00010C8B3D8C3E8D3F80C72005030299
:1010C000119DC3E5479545400302119DE545C39534
:1010D00047F545AB451545EB700302119D75822020
:1010E000120A8D80EEE54C24FDF8884C86030886B4
:1010F0000408860518188B3D8C3E8D3FE53FFB307C
:10110000E7047A438013EB546060047A50800AEB62
:1011100030E6047A4980027A588A82C002120A8D27
:1011200075823A120A8D758230120A8D7582781294
:101130000A8DD002BA4902800BBA50028006853E61
:1011400082120AC0853D82120AC08051D2097544BC
:101150000A804A754408804575440A8040754410E9
:10116000803BD2028037D2038033D204802FE54CFB
:1011700024FDF8884C860308860408860518188B19
:101180003D8C3E8D3F8B828C838DF0E54212079320
:10119000A3E54312079380058A82120A8D20020676
:1011A000200303300470E54C24FCF8884C860308C7
:1011B00086040886050886061818188B3D8C3E8D17
:1011C0003F8E40E53DE53EE53FE5408B828C838DDB
:1011D000F0EE12145B74FFB5460375460630042723
:1011E000747F5540FB8B41E541EB2BFB8B41E53F89
:1011F00030E70674014541F541E541246840067435
:101200009925414002D203300306120D89020E7760
:10121000120B16020E77E5447003020E777B5230F4
:101220000A2BE54C14F8884CE6FC3395E0FDFEFFF4
:101230008C3D8D3E8E3F8F4020095EAC3D7D007E13
:10124000007F008C3D8D3E8E3F8F40804C300B1FC9
:10125000E54C24FCF8884C860408860508860608B8
:1012600086071818188C3D8D3E8E3F8F40802AE5EA
:101270004C24FEF8884C860408860518ED3395E06A
:10128000FEFF8C3D8D3E8E3F8F4020090CAC3DAD66
:101290003E7E007F008E3F8F40300C43E53D453E53
:1012A000453F454060397408B5440C758230C00331
:1012B000120A8DD00380287410B54423758230C083
:1012C00003120A8DD00330010C758278C003120A14
:1012D0008DD003800A758258C003120A8DD0033066
:1012E0000925AC3DAD3EAE3FE540FF30E717C3E416
:1012F0009CFCE49DFDE49EFEE49FFF8C3D8D3E8EB4
:101300003F8F408002C209754700D20D8B007541A6
:1013100000C000120AD7D000200D0DE541C4FCE644
:10132000FD4CF61888038002A6410547B20DE53D45
:10133000453E453F454070D68803E54570037545F9
:101340000120061A200517E54704FCC39545500EF9
:10135000758220C003120A8DD003154580E930093B
:101360000E75822DC003120A8DD00315458024E529
:1013700047602030070E75822BC003120A8DD00300
:101380001545800F30080C758220C003120A8DD0DD
:1013900003154520051EAC451545C3E5479C502760
:1013A0003006047C3080027C208C82C003120A8DBF
:1013B000D00380E2C3E54795455009E545C395470D
:1013C000F54580037545008B00AB471547EB602260
:1013D000B20D200D0A08E6C4540FFB8B418007862E
:1013E00003740F5BF541854182C000120AA7D0004B
:1013F00080D7200503020E77AB451545EB7003023D
:101400000E77758220120A8D80EE8A82120A8D0272
:101410000E7785428285438322AA82BA0A081099F0
:101420000280FB75990D10990280FB8A9922FCAB12
:10143000F0AA83A982749EF582C2D1EC30E716D25D
:10144000D1E9F42401F9EAF43400FAEBF43400FBB6
:10145000ECF43400FC1209BC02096DC0E0F84582CE
:10146000458345F07009F5F0FBFCFDFE021529E807
:1014700023A2F792E0F8A982AA83D2F7ABF07C000E
:101480007E07C3749798404074FF2EFE740A89F05B
:10149000A4F985F082740A8AF0A4FA85F083740AAC
:1014A0008BF0A4FB740529F9EA3582FAEB3583FB4E
:1014B000740035F0FCC3EC13FCEB13FBEA13FAE900
:1014C00013F908EC70EF80BAE8C3947FF88B838E31
:1014D000F0E4FBFCFDFEFF08C3E933F9EA33FAE56B
:1014E0008333F583EB3BD4FBEC3CD4FCED3DD4FDE6
:1014F000EE3ED4FEEF3FD4FF602D05F074052BD4F3
:10150000FBE43CD4FCE43DD4FDE43ED4FEE43FD413
:10151000FF758204C3EF13FFEE13FEED13FDEC1312
:10152000FCEB13FBD582EDD8AF784DD0E020E7047B
:10153000762B8002762D087906E7C4540F4430F6E6
:1015400008B90603762E08E7540F4430F60819B997
:1015500002E7764508E5F020E704762B8004762D37
:10156000F4040875F00A844430F608E5F04430F6D7
:1015700008E4F690004D75F04022AA82AB83ACF0EF
:101580007D007E008A828B838CF0120627FFA3AA3F
:1015900082AB83EF60070DBD00EA0E80E78D828E7F
:1015A0008322000000000000000000000000000096
:00000001FF
