:10000000020003758170120176E582600302006FC1
:10001000780079007A007B007C007D00EC4D601C4C
:1000200088828983E493A3A882A9838A828B83F040
:10003000A3AA82AB831CBCFFE31D80E07582007520
:1000400083007C207D00EC4D600AE4F0A31CBCFF23
:10005000F51D80F27582007583007C007D00EC4DFB
:10006000600AE4F0A31CBCFFF51D80F212017512BA
:1000700004C880FE0D663D252E3266487A2C20008D
:100080005465737420566F6C746167653D252E321C
:1000900066562C2052656620566F6C746167653D0C
:1000A000252E3266562C2050686173653D252E3210
:1000B00066206465677265657320202020200054E7
:1000C0003D252E32665620523D252E32665600467C
:1000D0003D252E3066487A20503D252E3166202061
:1000E00020002E3D25322E32666D7320503D252E88
:1000F00031662020005465737420566F6C746167FC
:10010000653D252E3266562C2052656620566F6C52
:10011000746167653D252E3266562C2050686173E8
:10012000653D252E32662072616469616E20202053
:10013000202000543D252E32665620523D25342E77
:1001400032665600463D252E3066487A20503D25C1
:100150002E32667069202000543D25322E31666DA6
:100160007320503D252E326670692020006E6F741A
:1001700068696E67002275A7007597DE7597AD43B5
:10018000FF8075EF0275A71075C12075A70075A9CE
:100190000075A900E5A930E7FB75A90375A903E57A
:1001A000A930E7FB43A41075E10175E20075E34057
:1001B000759810858E8E758DE6858D8B53890F43CE
:1001C0008920D28ED2997582002275A70075B280DF
:1001D00075BCF875B91E75E80075DF3F75B300D2C0
:1001E000EF22AA82438E407592B87593FF85929450
:1001F0008593957591047B00C3EB9A500BE5913084
:10020000E7FB53917F0B80F075910022AA82AB83AC
:10021000BA0004BB0001227582F9C002C0031201BA
:10022000E27582F91201E27582F91201E27582FA31
:100230001201E2D003D0021ABAFF011B80D2AA82B7
:100240008511F005F07401800225E0D5F0FBFB7507
:10025000A720BA0002800ABA01028012BA022780DF
:100260001AEBF4FA52F1EB4280EB42D48018EBF433
:10027000FA52F2EB4290EB42D5800BEBF4FA52F3D8
:10028000EB42A0EB42CC75A700228582BBD2EC20CA
:10029000ECFDD2EC20ECFD85BD8285BE83221202EE
:1002A0008A121204AA82AB83ACF0FDC002C003C064
:1002B00004C00590C6A875F0537440121244AA8277
:1002C000AB83ACF0FDE58124FCF581E4C0E074FC77
:1002D000C0E0747FC0E07446C0E08A828B838CF0FB
:1002E000ED121487AA82AB83ACF0FDE58124FCF506
:1002F000818A828B838CF0ED225389F0438901C27D
:100300008C22D2A57582281201E2C2A522AA828A75
:10031000E0A2E792A1A2E692A2A2E592A3A2E492B1
:10032000A4C0021203027582281201E2D0028AE000
:10033000A2E392A1A2E292A2A2E192A3A2E092A4DD
:10034000020302AA82D2A68A8212030D9000020240
:10035000020CAA82C2A68A8212030D900005020234
:100360000CC2A590001412020C7582331203527550
:10037000823312035275823212035275822812039D
:100380005275820C120352758201120352900014AE
:1003900002020CAA82AB83ACF07402B522047DC0C9
:1003A00080027D808D82C002C003C004120352907F
:1003B000000512020CD004D003D0027D007E00EDB7
:1003C0002AFFEE3BF88C018F82888389F01211E8B6
:1003D000FF60208F82C002C003C004C005C00612A7
:1003E0000343D006D005D004D003D0020DBD00CF0A
:1003F0000E80CC3000248D028E03C3EA9410EB648F
:100400008094805015758220C002C003120343D02F
:1004100003D0020ABA00E30B80E02285822585839F
:100420002685F027E4F528F529E52324FFFFE524B8
:1004300034FFF879007A00C3E99FEA648088F063AA
:10044000F08095F05059C002C007C000C0011213DF
:1004500081AB82D001D000D007D002BB0A0280035A
:10046000BB0D1DE5282525FCE5293526FDAE278C8D
:10047000828D838EF0E4121394852882852983224D
:10048000E92525FCEA3526FDAE278C828D838EF08A
:10049000EB12139409B900010A89288A298098E58A
:1004A000282525FAE5293526FBAC278A828B838C03
:1004B000F0E412139485238285248322D2EC20EC6D
:1004C000FD85BD8285BE83221203611202F990016F
:1004D000F412020C75110675820112023E751107A5
:1004E00075820112023E1201CA75BB0DD2EC20ECDE
:1004F000FD758A00758C001204BCE5828583F04589
:10050000F070F41204BCE5828583F045F060F4D20B
:100510008C1204BCE5828583F045F070F4C28C85B2
:100520008C821212E7AA82AB83ACF0FDC002C0033A
:10053000C004C00590000075F08074431212448519
:10054000824385834485F045F546E58124FCF581A9
:10055000AE8A7F008E828F8312147AAE82AF83AA16
:10056000F0FBC006C007C002C003854382854483F8
:100570008545F0E5461212F285823685833785F08F
:1005800038F539E58124FCF581E4C0E0C0E0744031
:10059000C0E07441C0E08536828537838538F0E558
:1005A00039121487AE82AF83AAF0FBE58124FCF5F3
:1005B000818E828F838AF0EB12121085823E8583B2
:1005C0003F1204BCE5828583F045F070F41204BC50
:1005D000E5828583F045F060F4C3E53E94E8E53FAD
:1005E00064809483E433FC600C853E82C004120175
:1005F000E2D00480167511E8751203853E82853FAE
:1006000083C0041213AD12020CD00475820DC00415
:1006100012029EAD82AE83AFF0FAD0048D2A8E2BEB
:100620008F2C8A2D75820CC00412029EAA82AB8385
:10063000ADF0FED004EA4B4D8EF0C2F745F070E409
:1006400075820CC00412029EAA82AB83ADF0FED06C
:1006500004EA4B4D8EF0C2F745F060E4EC6008858B
:100660003E821201E280127511E8751203853E8206
:10067000853F831213AD12020C75820C12029EAAE2
:1006800082AB83ACF0FD8A2E8B2F8C308D31758C34
:1006900000758A0075820C12029EAA82AB83ACF0B0
:1006A000FDEA4B4C8DF0C2F745F070E875820D12F3
:1006B000029EAA82AB83ACF0FDEA4B4C8DF0C2F7F0
:1006C00045F070D075820C12029EAA82AB83ACF00A
:1006D000FDEA4B4C8DF0C2F745F0701875820D1293
:1006E000029EAA82AB83ACF0FDEA4B4C8DF0C2F7C0
:1006F00045F060D0D28C75820C12029EAA82AB8328
:10070000ACF0FDEA4B4C8DF0C2F745F06026753237
:10071000007533007534807535BF75820D12029EE9
:10072000AE82AF83AAF0FBEE4F4A8BF0C2F745F0E2
:10073000702680E675320075330075348075353F5C
:1007400075820C12029EAA82AB83ACF0FDEA4B4C80
:100750008DF0C2F745F060E8C28C858C821212E7FA
:10076000AA82AB83ACF0FDC002C003C004C00590F8
:10077000000075F0807443121244858243858344DF
:1007800085F045F546E58124FCF581AE8A7F008E33
:10079000828F8312147AAE82AF83AAF0FBC006C0A8
:1007A00007C002C0038543828544838545F0E54642
:1007B0001212F285823A85833B85F03CF53DE58156
:1007C00024FCF581308203020CA7208103020A1A5F
:1007D000C036C037C038C03990000075F0C07441D1
:1007E000121244AE82AF83AAF0FBE58124FCF581AE
:1007F0007440C0E07454C0E07489C0E0744CC0E040
:100800008E828F838AF0EB121487AA82AB83ACF0BE
:10081000FDE58124FCF581C002C003C004C0059041
:10082000000075F080743F121487858243858344ED
:1008300085F045F546E58124FCF581C043C044C000
:1008400045C0467474C0E07400C0E07480C0E0121B
:100850001360E58124F9F581C03AC03BC03CC03D3E
:1008600090000075F0B4744312124485824785836A
:100870004885F049F54AE58124FCF581C036C0374A
:10088000C038C039900000E4F5F07440121244AC56
:1008900082AD83AAF0FBE58124FCF581C004C0058C
:1008A000C002C0038547828548838549F0E54A1226
:1008B0001487AA82AB83ACF0FDE58124FCF581C0EE
:1008C00002C003C004C0058532828533838534F0BD
:1008D000E53512124485824785834885F049F54AFB
:1008E000E58124FCF581C02EC02FC030C0319006B8
:1008F0009375F0B5743F12124485824B85834C8505
:10090000F04DF54EE58124FCF581C02AC02BC02CAA
:10091000C02D90069375F0B5743F121244AC82ADB1
:1009200083AAF0FBE58124FCF581C047C048C0499B
:10093000C04AC04BC04CC04DC04EC004C005C00230
:10094000C0037480C0E07400C0E07480C0E0121383
:1009500060E58124F1F581C02EC02FC030C03190F8
:10096000069375F0B5743F12124485824B85834C13
:1009700085F04DF54EE58124FCF581C02AC02BC0E1
:100980002CC02D90069375F0B5743F121244AE82C0
:10099000AF83AAF0FBE58124FCF581C04BC04CC0BD
:1009A0004DC04EC006C007C002C00374BFC0E07493
:1009B00000C0E07480C0E07400C0E07400C0E0E4F7
:1009C000C0E0121434E58124F2F581C047C048C06C
:1009D00049C04AC043C044C045C04674CFC0E0745B
:1009E00000C0E07480C0E07410C0E07400C0E0E4B7
:1009F000C0E0121434E58124F2F581752201C200B1
:100A000090000075F000120393752202C20090005E
:100A10001075F0001203930211DFC036C037C038E2
:100A2000C03990000075F0C07441121244AA82AB24
:100A300083ACF0FDE58124FCF5817440C0E0745482
:100A4000C0E07489C0E0744CC0E08A828B838CF073
:100A5000ED121487AA82AB83ACF0FDE58124FCF58E
:100A600081C002C003C004C00590000075F080740E
:100A70003F121487AA82AB83ACF0FDE58124FCF51C
:100A800081C002C003C004C0057474C0E07400C01B
:100A9000E07480C0E0121360E58124F9F581C03A6A
:100AA000C03BC03CC03D90000075F0B474431212CE
:100AB0004485824B85834C85F04DF54EE58124FCC1
:100AC000F581C036C037C038C039900000E4F5F079
:100AD0007440121244AE82AF83AAF0FBE58124FC7D
:100AE000F581C006C007C002C003854B82854C83D8
:100AF000854DF0E54E121487AA82AB83ACF0FDE57C
:100B00008124FCF581C002C003C004C00585328287
:100B10008533838534F0E53512124485824B858315
:100B20004C85F04DF54EE58124FCF581C02EC02F9B
:100B3000C030C03190069375F0B5743F12124485F1
:100B4000824785834885F049F54AE58124FCF58193
:100B5000C02AC02BC02CC02D90069375F0B5743FF1
:100B6000121244AC82AD83AAF0FBE58124FCF5812E
:100B7000C04BC04CC04DC04EC047C048C049C04A21
:100B8000C004C005C002C0037480C0E07400C0E0AF
:100B90007480C0E0121360E58124F1F581C02EC09D
:100BA0002FC030C03190069375F0B5743F121244D7
:100BB00085824785834885F049F54AE58124FCF51F
:100BC00081C02AC02BC02CC02D90069375F0B5743F
:100BD0003F121244AE82AF83AAF0FBE58124FCF5FC
:100BE00081C047C048C049C04AC006C007C002C053
:100BF0000374BFC0E07400C0E07480C0E07400C043
:100C0000E07400C0E0E4C0E0121434E58124F2F5A1
:100C100081C036C037C038C03990800075F0BB74D1
:100C200046121244AA82AB83ACF0FDE58124FCF5A8
:100C3000817440C0E07454C0E07489C0E0744CC05A
:100C4000E08A828B838CF0ED121487AA82AB83AC8E
:100C5000F0FDE58124FCF581C04BC04CC04DC04E79
:100C6000C002C003C004C00574E2C0E07400C0E06C
:100C70007480C0E07410C0E07400C0E0E4C0E01212
:100C80001434E58124F2F581752201C20090000040
:100C900075F000120393752202C20090001075F0E7
:100CA000001203930211DF2082030211D12081037D
:100CB000020F21C036C037C038C03990000075F02F
:100CC000C07441121244AA82AB83ACF0FDE58124CA
:100CD000FCF5817440C0E07454C0E07489C0E074D5
:100CE0004CC0E08A828B838CF0ED121487AA82AB11
:100CF00083ACF0FDE58124FCF581C002C003C00493
:100D0000C00590000075F080743F12148785824BF7
:100D100085834C85F04DF54EE58124FCF581C04B73
:100D2000C04CC04DC04E7474C0E07400C0E074800C
:100D3000C0E0121360E58124F9F581C03AC03BC0E0
:100D40003CC03D90000075F0B4744312124485829B
:100D50004785834885F049F54AE58124FCF581C043
:100D600036C037C038C039900000E4F5F074401246
:100D70001244AC82AD83AAF0FBE58124FCF581C06E
:100D800004C005C002C0038547828548838549F0B9
:100D9000E54A121487AA82AB83ACF0FDE58124FCFE
:100DA000F581C002C003C004C0058532828533834B
:100DB0008534F0E535121244AA82AB83ACF0FDE530
:100DC0008124FCF581E4C0E0C0E07434C0E07443E9
:100DD000C0E08A828B838CF0ED1214878582478570
:100DE000834885F049F54AE58124FCF581C02EC091
:100DF0002FC030C03190069375F0B5743F12124485
:100E000085824385834485F045F546E58124FCF5DC
:100E100081C02AC02BC02CC02D90069375F0B574EC
:100E20003F121244AC82AD83AAF0FBE58124FCF5AD
:100E300081C047C048C049C04AC043C044C045C043
:100E400046C004C005C002C00374F5C0E07400C011
:100E5000E07480C0E0121360E58124F1F581C02EBA
:100E6000C02FC030C03190069375F0B5743F121298
:100E70004485824385834485F045F546E58124FC1D
:100E8000F581C02AC02BC02CC02D90069375F0B5FB
:100E9000743F121244AE82AF83AAF0FBE58124FCBA
:100EA000F581C043C044C045C046C006C007C0026B
:100EB000C0037433C0E07401C0E07480C0E074000B
:100EC000C0E07400C0E0E4C0E0121434E58124F214
:100ED000F581C047C048C049C04AC04BC04CC04D56
:100EE000C04E7444C0E07401C0E07480C0E074106F
:100EF000C0E07400C0E0E4C0E0121434E58124F2E4
:100F0000F581752201C20090000075F00012039374
:100F1000752202C20090001075F0001203930211B6
:100F2000DFC036C037C038C03990000075F0C074DB
:100F300041121244AA82AB83ACF0FDE58124FCF59A
:100F4000817440C0E07454C0E07489C0E0744CC047
:100F5000E08A828B838CF0ED121487AA82AB83AC7B
:100F6000F0FDE58124FCF581C002C003C004C0058A
:100F700090000075F080743F121487AA82AB83AC96
:100F8000F0FDE58124FCF581C002C003C004C0056A
:100F90007474C0E07400C0E07480C0E0121360E5B7
:100FA0008124F9F581C03AC03BC03CC03D900000AF
:100FB00075F0B4744312124485824B85834C85F0DE
:100FC0004DF54EE58124FCF581C036C037C038C0F0
:100FD00039900000E4F5F07440121244AE82AF8301
:100FE000AAF0FBE58124FCF581C006C007C002C061
:100FF00003854B82854C83854DF0E54E121487AAFC
:1010000082AB83ACF0FDE58124FCF581C002C00316
:10101000C004C0058532828533838534F0E53512FE
:101020001244AA82AB83ACF0FDE58124FCF581E497
:10103000C0E0C0E07434C0E07443C0E08A828B83B7
:101040008CF0ED12148785824B85834C85F04DF52D
:101050004EE58124FCF581C02EC02FC030C03190F8
:10106000069375F0B5743F12124485824785834814
:1010700085F049F54AE58124FCF581C02AC02BC0E2
:101080002CC02D90069375F0B5743F121244AC82BB
:10109000AD83AAF0FBE58124FCF581C04BC04CC0B8
:1010A0004DC04EC047C048C049C04AC004C005C07A
:1010B00002C00374F5C0E07400C0E07480C0E012A8
:1010C0001360E58124F1F581C02EC02FC030C031FE
:1010D00090069375F0B5743F12124485824785835C
:1010E0004885F049F54AE58124FCF581C02AC02BEA
:1010F000C02CC02D90069375F0B5743F121244AE0B
:1011000082AF83AAF0FBE58124FCF581C047C0488B
:10111000C049C04AC006C007C002C0037433C0E063
:101120007401C0E07480C0E07400C0E07400C0E0EE
:10113000E4C0E0121434E58124F2F581C036C037F2
:10114000C038C03990800075F0BB7446121244AAB2
:1011500082AB83ACF0FDE58124FCF5817440C0E0F6
:101160007454C0E07489C0E0744CC0E08A828B8300
:101170008CF0ED121487AA82AB83ACF0FDE58124DC
:10118000FCF581C04BC04CC04DC04EC002C003C076
:1011900004C0057458C0E07401C0E07480C0E074FD
:1011A00010C0E07400C0E0E4C0E0121434E5812413
:1011B000F2F581752201C20090000075F000120363
:1011C00093752202C20090001075F0001203938004
:1011D0000E752201C20090016D75F080120393908C
:1011E000006412020C0204E920F71430F61488831C
:1011F000A88220F507E6A88375830022E280F7E441
:101200009322E022E4AC83AB82FAF9748E0215D803
:101210001215E2700AE582458345F0700122E43040
:10122000D112F4700BE5F0F47006E58330E701228B
:1012300090800022700AE5F07006E58320E7012225
:10124000907FFF221216BFBC000302165EEF60FA09
:1012500030D502B2D1E583B4FF03021674E582B43F
:10126000FF03021674258340072482400B02165E9A
:101270002483145003021674F582EA8DF0A4A8F0BA
:10128000EA8EF0A428F8E435F0F9EB8DF0A428E913
:1012900035F0F9E433CA8FF0A429F9EA35F0FAEB16
:1012A000F88EF0A429F9EA35F0FAE433FBEC8DF07E
:1012B000A429F9EA35F0FAE43BFBE88FF0A42AFA16
:1012C000EB35F0FBE433CCFD8EF0A42AFAEB35F0DD
:1012D000FBE43CFCED8FF0A42BFBEC35F0FC20E7AD
:1012E0000312168C02163DE4AC82FBFAF9748602F6
:1012F00015D81216BF7900E583B58202800D500320
:101300001216EDE583C39582121707E5D0C465D0A8
:1013100020E117EA2DFAEB3EFBEC3FFC500974018B
:10132000121707EC4480FC02163DC3EA9DFAEB9EBF
:10133000FBEC9FFC500FC3E499F9E49AFAE49BFBA1
:10134000E49CFCB2D112168C02163D0220D6858296
:101350005D85835E85F05F85106090134B021B29CD
:10136000C008858108E50824FBF560E50824FBF842
:10137000865D08865E08865F90134B121B29D00895
:101380002210980280FBAA998A82C0021220D6D02D
:10139000028A822220F71030F6118883A88220F575
:1013A00007F6A88375830022F280F7F022C2D5E504
:1013B0008330E70DD2D5E4C39582F582E49583F5B9
:1013C00083E51230E70DB2D5E4C39511F511E4952C
:1013D00012F5121215A630D50BE4C39582F582E4FE
:1013E0009583F58322AA82AB09AC0AAD0B8B828C64
:1013F000838DF0EA1213940509E4B50902050A2267
:1014000085820985830A85F00B850C5D850D5E85D7
:101410000E5F850F609013E5121B29AA82AB83AC87
:1014200009AD0AAE0B8C828D838EF0E41213948A80
:10143000828B8322C008858108E50824F8F560E5E1
:101440000824FBF8860908860A08860BE50824F8B4
:10145000F8865D08865E08865F9013E5121B29AA50
:1014600082AB83AC09AD0AAE0B8C828D838EF0E427
:101470001213948A828B83D00822AC83AB827A00C9
:101480007900748E0220F41216BF30D502B2D1BF9B
:101490000009BC0003021681021674BC0003021688
:1014A0005EE583B4FF0BE582B4FF030216810216EA
:1014B0005EE582B4FF03021674C395835007247F50
:1014C000400B02165E2480145003021674C0E0E440
:1014D000CCCBCAF98D118E128F13EF54F0C4F514D2
:1014E0007583068514F0EB84F582E9C4F9EAC4FA41
:1014F000EBC4FBEC540FC47803D6FC18EBD6FB18F6
:10150000EAD6FA8582F0EDA4A8F0FD8582F0EEA47B
:1015100028FEE435F0F88582F0EFA428FFE435F0EA
:10152000F8E99DF9EA9EFAEB9FFBEC98FCAD11AE51
:1015300012AF1330E7101582E92DF9EA3EFAEB3FBE
:10154000FBE43CFC80EDC082D58398C3E933F9EA23
:1015500033FAEB33FBEC33FCC3E99DEA9EEB9FECE3
:101560009400B3E413F9D002D0E0C44AFAD003D017
:10157000E0C44BFBD004D0E0F5F0540FC44CFCD0D9
:1015800082158230F40FD3EC13FCEB13FBEA13FA51
:10159000E913F90582E930E70A74012AFAE43BFB12
:1015A000E43CFC0216557A10E4FBFCE58225E0F5EC
:1015B00082E58333F583EB33FBEC33FCEB9511F5DC
:1015C000F0EC95124006FCABF0438201DADD22FC20
:1015D000ABF0AA83A982749EC2D1F58212168C0246
:1015E000163D122118C3749E958240397900121756
:1015F0000730D126E9F42401F582EAF43400F583BA
:10160000EBF43400F5F0ECF43400700AE582458325
:1016100045F0700122E430E70F22EC20E7148982C4
:101620008A838BF02230D10AE4F582F583F5F074D9
:10163000802274FFF582F583F5F0747F22B9800370
:10164000EA13B34010EA2401FAE43BFBE43CFC500B
:10165000047C800582BC000EBB000BBA0008E4F5D8
:10166000F0F583F58222A2D1E582138CF092F78BFC
:10167000838A8222E4F583F58275F080F4A2D11387
:1016800022E4F583F58275F0C0747F227804EC7053
:1016900011E58224F8500AF582E4C9CACBFCD8EFE0
:1016A00022EC7820058220E713D5820122C3E9339A
:1016B000F9EA33FAEB33FBEC33FCD8EA158222AAC1
:1016C00082AB83A2F73392D16002D2F7F582ACF0FD
:1016D000E58124F9F8E6FD08E6FE0886F008E6A2B2
:1016E000F73392D56002D2F7F583AFF022E582C5D9
:1016F00083F582A2D133A2D592D11392D5ECCFFC3F
:10170000EBCEFBEACDFA226040F82582500274FF4E
:10171000F582E824F8501ECCCBCAF9E4CC24F8506A
:1017200014CBCAF9E4CB24F8500BCAF9E4CA24F864
:10173000500379002224086010F8C3EC13FCEB136B
:10174000FBEA13FAE913F9D8F122AA82745BC0E02C
:101750007417C0E0C04FC0508A82220556E4B556C7
:1017600002055722AA8274302AFA24C6500A740746
:101770002AFA3001034302208A8202174AE582FADC
:10178000C4540FF582C002121764D002740F5AF5C8
:1017900082021764AA51AB52AC53AD54AE55755C7E
:1017A00020EE2EFEED235401FF4206EA2AFAEB3327
:1017B000FBEC33FCED33FDC3EE95584008EEC395CA
:1017C00058FE430201D55CD98A518B528C538D54FB
:1017D0008E5522786DE624D075F00AA4FA786EE66C
:1017E00024D02AFA786C8603BB2D04C3E49AFA75D8
:1017F0005801C3E464808AF063F08095F050297545
:101800005C038A0374F6255C401C0558E55C1424CF
:1018100061F8E55C2461F98704A604772E1BEBFAD6
:101820006004055C80DE8B02EA30E70D7862860397
:101830007863A6037862762E0AE55A600AE55A04B0
:10184000FB2558F5588005300C0205587861860351
:10185000E4BB2D0104FB7006200703300802055885
:1018600030050302191A300657EB600C75822DC043
:101870000212174AD002801C30070C75822BC0025E
:1018800012174AD002800D30080A758220C0021259
:10189000174AD00278628604BC2E0C758230C002D2
:1018A00012174AD0021559AC591559C3E5589C4036
:1018B0000302195E758230C00212174AD00280E717
:1018C000AC591559C3E5589C500C758220C00212C2
:1018D000174AD00280EA78618604BC2D0C75822DEF
:1018E000C00212174AD002801C30070C75822BC030
:1018F0000212174AD002800D30080A758220C002F9
:1019000012174AD00278628604BC2E52758230C00B
:101910000212174AD00215598044EB600E75822DD1
:10192000C00212174AD0021559802030070E758266
:101930002BC00212174AD0021559800F30080C75BF
:101940008220C00212174AD002155978628603BB62
:101950002E0C758230C00212174AD0021559755CE0
:1019600001C20EE55C2461F88603BB4503021A1B25
:10197000BB2E348A03C3E464808BF063F08095F05F
:10198000500F758230C00312174AD0031B8B0280A0
:10199000E48B02D20EE55A7038200C03021A1B7534
:1019A000822E12174A8074300E278A03EB30E71F0D
:1019B000C3E46480855AF063F08095F0500C758222
:1019C00030C00312174AD003155A0B8B0280DD8BEF
:1019D00002300E0EC3E46480855AF063F08095F007
:1019E0005021E55C2461F886038B82C00212174AFD
:1019F000D002300E0EE55C2461F88603BB2E028017
:101A000002155A1559C3E46480855AF063F0809535
:101A1000F04003200E05055C021963C3E464808571
:101A20005AF063F08095F0500A75823012174A150B
:101A30005A80E830050FAA591559EA6008758220C6
:101A400012174A80F122E55A7003300C0D740725F5
:101A50005AFAE559C39AF5598006E55924FAF55919
:101A6000755C0078618602BA2B0F20070C786176CE
:101A700020200805755C010559200519AA59C3E401
:101A800064808AF063F08095F0500A758220121706
:101A90004A155980E7C20EE55C2461F88602BA0057
:101AA000028069BA451F3001027665C3E46480850F
:101AB0005AF063F08095F0500A75823012174A157B
:101AC0005A80E8D20EC3E55C9402E433FA7014EA5B
:101AD000700EC3E46480855AF063F08095F0400393
:101AE000300E16E55C2461F886028A8212174AE5F8
:101AF0005C24FD5012155A800E7402B55C09300C3E
:101B00000675822E12174A055C021A97300519AA2B
:101B100059C3E464808AF063F08095F0500A7582BE
:101B20002012174A155980E72285824F858350E499
:101B3000F556F557AA5DAB5EAC5F8A828B838CF05D
:101B40001211E8FD74012AF55DE43BF55E8C5FED52
:101B5000FA70030220CFBA250280030220C7C20513
:101B6000C206C207C208C209C20AC20BC20CC20224
:101B7000C203C204755800755900755AFFAB5DACBD
:101B80005EAD5F8B828C838DF01211E8FAA3AB827D
:101B9000AC838B5D8C5E8D5FBA25078A8212174AF3
:101BA00080928A06BE3000402E8A06EE24C6402768
:101BB00074FFB55A13E55975F00AA4FEEA24D02E35
:101BC000F55970BFD20680BBE55A75F00AA4FEEA4B
:101BD00024D02EF55A80ACBA2E0A74FFB55AA475DB
:101BE0005A00809F8A06BE6100400E8A06EE248558
:101BF00040075302DFD2018002C201BA2002807581
:101C0000BA2303021C84BA2A03021C89BA2B02805D
:101C10005FBA2D028055BA4202805FBA4303021CAC
:101C2000CEBA4403021E09BA4503021E23BA460374
:101C3000021E1FBA4703021E27BA4903021E09BA31
:101C40004C02803BBA4E03021E2BBA4F03021E10F9
:101C5000BA5003021DA2BA5303021CF2BA55030282
:101C60001E15BA5803021E1A021E55D205021B8306
:101C7000D207021B83D208021B83D20A021B83D223
:101C80000B021B83D20C021B8374FFB55A20300A4F
:101C90000BE56014F888608659021B83E56024FE1A
:101CA000F888608606088607188E59021B83300A5A
:101CB0000BE56014F88860865A021B83E56024FEF9
:101CC000F888608606088607188E5A021B83300A39
:101CD0000AE56014F888608602800FE56024FEF84B
:101CE00088608603088604188B028A8212174A02CB
:101CF0001E5AE56024FDF88860860308860408867D
:101D00000518188B518C528D538B828C838DF01259
:101D10002249AB82AC838B5B74FFB55A03855B5A57
:101D200020051DC3E55B95595016E559C3955BF534
:101D300059AB591559EB600875822012174A80F18A
:101D40008551828552838553F01211E8FBFA602990
:101D5000AB5A155AC3E464808BF063F08095F05061
:101D6000188A8212174AAB51AC52AD530BBB00011B
:101D70000C8B518C528D5380C7200503021E5AC311
:101D8000E55B95594003021E5AE559C3955BF55929
:101D9000AB591559EB7003021E5A75822012174A6F
:101DA00080EEE56024FDF8886086030886040886D6
:101DB0000518188B518C528D53E553FB30E7047A8C
:101DC000438013EB546060047A50800AEB30E604E1
:101DD0007A4980027A588A82C00212174A75823A7A
:101DE00012174A75823012174A75827812174AD034
:101DF00002BA4902800BBA5002800685528212173D
:101E00007D85518212177D8051D20975580A804A0A
:101E1000755808804575580A8040755810803BD227
:101E2000028037D2038033D204802FE56024FDF88E
:101E30008860860308860408860518188B518C5222
:101E40008D538B828C838DF0E556121394A3E55746
:101E500012139480058A8212174A20020620030377
:101E6000300470E56024FCF8886086030886040866
:101E700086050886061818188B518C528D538E547F
:101E8000E551E552E553E5548B828C838DF0EE12DB
:101E9000212A74FFB55A03755A06300427747F55FA
:101EA00054FB8B55E555EB2BFB8B55E55330E70683
:101EB00074014555F555E555246840067499255536
:101EC0004002D203300306121A46021B341217D303
:101ED000021B34E5587003021B347B66300A2BE585
:101EE0006014F88860E6FC3395E0FDFEFF8C518DB0
:101EF000528E538F5420095EAC517D007E007F00CE
:101F00008C518D528E538F54804C300B1FE56024C2
:101F1000FCF8886086040886050886060886071887
:101F200018188C518D528E538F54802AE56024FEF0
:101F3000F88860860408860518ED3395E0FEFF8C6E
:101F4000518D528E538F5420090CAC51AD527E00EE
:101F50007F008E538F54300C43E551455245534515
:101F60005460397408B5580C758230C00312174A92
:101F7000D00380287410B55823758230C00312171F
:101F80004AD00330010C758278C00312174AD0037F
:101F9000800A758258C00312174AD003300925AC55
:101FA00051AD52AE53E554FF30E717C3E49CFCE457
:101FB0009DFDE49EFEE49FFF8C518D528E538F5405
:101FC0008002C209755B00D20D8B00755500C00000
:101FD000121794D000200D0DE555C4FCE6FD4CF61B
:101FE0001888038002A655055BB20DE551455245A0
:101FF00053455470D68803E559700375590120067E
:102000001A200517E55B04FCC39559500E75822014
:10201000C00312174AD003155980E930090E7582A2
:102020002DC00312174AD00315598024E55B6020A8
:1020300030070E75822BC00312174AD00315598042
:102040000F30080C758220C00312174AD0031559AF
:1020500020051EAC591559C3E55B9C50273006047A
:102060007C3080027C208C82C00312174AD003800F
:10207000E2C3E55B95595009E559C3955BF5598075
:10208000037559008B00AB5B155BEB6022B20D2032
:102090000D0A08E6C4540FFB8B5580078603740FA6
:1020A0005BF555855582C000121764D00080D7209B
:1020B0000503021B34AB591559EB7003021B347531
:1020C000822012174A80EE8A8212174A021B348538
:1020D000568285578322AA82BA0A0810990280FB89
:1020E00075990D10990280FB8A9922FCABF0AA83A6
:1020F000A982749EF582C2D1EC30E716D2D1E9F400
:102100002401F9EAF43400FAEBF43400FBECF43483
:1021100000FC12168C02163DAA82AB83A2F7339202
:10212000D16002D2F7F582ACF022C0E0F8458245DA
:102130008345F07009F5F0FBFCFDFE0221F8E82371
:10214000A2F792E0F8A982AA83D2F7ABF07C007ED6
:1021500007C3749798404074FF2EFE740A89F0A458
:10216000F985F082740A8AF0A4FA85F083740A8BE8
:10217000F0A4FB740529F9EA3582FAEB3583FB7488
:102180000035F0FCC3EC13FCEB13FBEA13FAE91384
:10219000F908EC70EF80BAE8C3947FF88B838EF077
:1021A000E4FBFCFDFEFF08C3E933F9EA33FAE583FB
:1021B00033F583EB3BD4FBEC3CD4FCED3DD4FDEE9E
:1021C0003ED4FEEF3FD4FF602D05F074052BD4FB09
:1021D000E43CD4FCE43DD4FDE43ED4FEE43FD4FF33
:1021E000758204C3EF13FFEE13FEED13FDEC13FC39
:1021F000EB13FBD582EDD8AF7861D0E020E7047611
:102200002B8002762D087906E7C4540F4430F60877
:10221000B90603762E08E7540F4430F60819B902C0
:10222000E7764508E5F020E704762B8004762DF468
:10223000040875F00A844430F608E5F04430F608E6
:10224000E4F690006175F04022AA82AB83ACF07D89
:10225000007E008A828B838CF01211E8FFA3AA8291
:10226000AB83EF60070DBD00EA0E80E78D828E83A1
:10227000220000000000000000000000000000003C
:00000001FF
