:0300000002028277
:0100030032CA
:03000B00020110DF
:0100130032BA
:01001B0032B2
:0100230032AA
:03002B0002012CA3
:10002E00C00078B10000D8FCD00022C000C0017919
:10003E002D78A6D8FED9FADAF6D001D00022D293C6
:10004E0012002EC29322A2E792B5A2E692B4A2E5C6
:10005E0092B3A2E492B212004C12002EA2E392B519
:10006E00A2E292B4A2E192B3A2E092B212004C22AA
:10007E00D291020054C291020054C293C2927433C0
:10008E0012008374331200837432120083742812A8
:10009E000083740C1200837401120083C0027A0272
:1000AE00120039D00222E493600612007EA380F67D
:1000BE002244404480020083C0E0E8C4540F443020
:1000CE0012007EE8540F443012007ED0E022202031
:1000DE003A20203A2020204D0020203A2020204D8A
:1000EE002020203A2020204D00E58954F04401F5CF
:1000FE0089758CEA758AE875F4EA75F2E8D2A9D2A8
:10010E008C22B2B73275C80075CDA975CC9A75CB55
:10011E00A975CA9AE4F530F531D2ADD2CA22C2CF52
:10012E00B2B6C0E0C0D00530E53070020531E53022
:10013E00B4E871E531B4036CD200E4F530F531E585
:10014E0034308057B459567400D4F534300100E57C
:10015E0032308047B459527400D4F532300200E583
:10016E0033308037B4116A740CD4F533300300E5A4
:10017E0035308027B450647441F535300400A8360C
:10018E00A937AA38308014B9410E785379557A4E72
:10019E00883689378A38801802021C24592401D4E3
:1001AE00F534800CD0D0D0E0322401D4F53280006A
:1001BE00E533853AF0B5F029E5328539F0B5F02111
:1001CE00E535853BF0B5F019E536B45314B28C80A5
:1001DE0010B412307401D4F53380D57450F53580D7
:1001EE00CFE533853DF0B5F0BBE532853CF0B5F09B
:1001FE00B3E535853EF0B5F0ABE536B4530280A4D9
:10020E00B28C80A02401D4F53380A50201BEB85370
:10021E000E784D794F7A4E883689378A388091B864
:10022E004D0E785479557A45883689378A388080CC
:10023E00BA450E785779457A44883689378A388098
:10024E00CAB8570F785479487A55883689378A381C
:10025E000201B2B9480F784679527A498836893701
:10026E008A380201BE785379417A54883689378AA2
:10027E00380201BE75817F1200F712011375E60078
:10028E0075E700D2AF120088C0E07401141200C1ED
:10029E00D0E0C083C082C0E09000DC1200B4D0E099
:1002AE00D082D083C0E07401141200BFD0E0C083AE
:1002BE00C082C0E09000E71200B4D0E0D082D083BC
:1002CE00D200D201D202D203D204C28CC2B775348C
:1002DE0000753200753312753541753653753755C5
:1002EE0075384E753902753A12753B41753C02757B
:1002FE003D12753E5020C522C0027A32120039D00E
:10030E000220C51630C5FDC28CC2CAE4F530F531E7
:10031E00F534D2CA0203723000DB208144C0027A67
:10032E0032120039D0022081383081FDC28C80001B
:10033E00E533B41107740CD4F5338013B41207747B
:10034E0001D4F533801EE5332401D4F5338015E551
:10035E0035B450077441F53502058A7450F5358071
:10036E000302046EC200C0E07407141200C1D0E094
:10037E00C000A8341200C6D000C0E07404141200ED
:10038E00C1D0E0C000A8321200C6D000C0E0740197
:10039E00141200C1D0E0C000A8331200C6D000C0B5
:1003AE00E07409141200C1D0E0C0E0E53512007E01
:1003BE00D0E0C0E0740E141200C1D0E0C0E0E5360B
:1003CE0012007ED0E0C0E0740F141200C1D0E0C065
:1003DE00E0E53712007ED0E0C0E07410141200C1C8
:1003EE00D0E0C0E0E53812007ED0E0C0E074011429
:1003FE001200BFD0E0C000A83A1200C6D000C0E084
:10040E007404141200BFD0E0C000A8391200C6D088
:10041E0000C0E07406141200BFD0E0C0E0E53B124D
:10042E00007ED0E0C0E07409141200BFD0E0C0001E
:10043E00A83D1200C6D000C0E0740C141200BFD04C
:10044E00E0C000A83C1200C6D000C0E0740E14122A
:10045E0000BFD0E0C0E0E53E12007ED0E002030314
:10046E00208228C0027A32120039D00220821C303B
:10047E0082FDC28CE532B459087400D4F532020301
:10048E003EE5322401D4F53202037220834A2083E2
:10049E0047C0027A32120039D00220833B3083FDEE
:1004AE00C28C8000E53AB41107740CD4F53A80156D
:1004BE00B412087401D4F53A020372E53A2401D459
:1004CE00F53A020372E53BB450077441F53B020363
:1004DE00727450F53B02037220842AC0027A3212E3
:1004EE000039D00220841E3084FDC28CE539B45907
:1004FE00077400D4F53980ACE5392401D4F53902FE
:10050E00037202037220854A208547C0027A321296
:10051E000039D00220853B3085FDC28C8000E53D40
:10052E00B41107740CD4F53D8015B412087401D4BF
:10053E00F53D020372E53D2401D4F53D020372E55B
:10054E003EB450077441F53E0203727450F53E02FC
:10055E0003722086ADC0027A32120039D002208694
:10056E00A13086FDC28CE53CB459077400D4F53C2D
:10057E0080ACE53C2401D4F53C020372A836A937C1
:10058E00AA38B9410F785379557A4E883689378A09
:10059E0038020372B8530F784D794F7A4E883689E8
:1005AE00378A38020372B84D0F785479557A4588D8
:1005BE003689378A38020372BA450F785779457AE9
:1005CE0044883689378A38020372B8570F785479BF
:1005DE00487A55883689378A38020372B9480F78B7
:1005EE004679527A49883689378A380203727853A7
:0D05FE0079417A54883689378A38020372B1
:00000001FF
