:030000000203C632
:10000300C0E0C0D0C000C001C002E4F539F53AF544
:100013003BF53CF53D7A20E534A2E779047831E6F7
:1000230033F608D9FA79057839E636D4F608D9F9DA
:10003300DAE5D002D001D000D0D0D0E022C0E0C0B9
:10004300D0C000C001C002E4F539F53AF53BF53CF8
:10005300F53D7A20E534A2E779047831E633F608F2
:10006300D9FA79057839C0D0E6243320E70224D0C1
:1000730020E30224FDD0D033F608D9EADAD6D00241
:10008300D001D000D0D0D0E022C0E0C0D0C000C0AA
:1000930001C0027A207905C3783DE613C0D030E76A
:1000A3000224D030E30224FDF618D0D0D9EC790431
:1000B3007834E613F618D9FADADBD002D001D0008F
:1000C300D0D0D0E022C0E0C0D0E5312535F531E510
:1000D300323536F532E5333537F533E5343538F532
:1000E30034D0D0D0E022C0E0C0D0C3E5319535F59F
:1000F30031E5329536F532E5339537F533E5349509
:1001030038F534D0D0D0E022C0E0C0D0C3E531957B
:1001130035E5329536E5339537E53495389200D099
:10012300D0D0E022C0E0C0D0C3E5359531E53695A7
:1001330032E5379533E53895349200D0D0D0E022BC
:10014300C0E0C0D0C200C3E53595317014E53695E3
:1001530032700EE53795337008E53895347002D266
:1001630000D0D0D0E0221201432000030201272255
:1001730012014320000302010B22C0E0C0F0C0D0F3
:10018300C000C001C002C003E5318535F0A4F8A961
:10019300F0E5328535F0A429F9E435F0FAE5318547
:1001A30036F0A429F9E5F03AFAE433FBE533853573
:1001B300F0A42AFAE5F03BFBE5328536F0A42AFAEF
:1001C300E5F03BFBE5318537F0A42AFAE5F03BFB8C
:1001D300E5348535F0A42BFBE5338536F0A42BFB02
:1001E300E5328537F0A42BFBE5318538F0A42BFBF2
:1001F3008B348A3389328831D003D002D001D000C6
:10020300D0D0D0F0D0E022C0E0C0D0C000C001C048
:1002130002C003C0047C20E4F8F9FAFBC3E53133E0
:10022300F531E53233F532E53333F533E53433F580
:1002330034E833F8E933F9EA33FAEB33FBC3E895EF
:1002430035E99536EA9537EB95384013E89535F857
:10025300E99536F9EA9537FAEB9538FB433101DC3A
:10026300BBD004D003D002D001D000D0D0D0E02244
:10027300C00078B10000D8FCD00022C000C00179D2
:100283002D78A6D8FED9FADAF6D001D00022D2937F
:10029300120273C29322A2E792B5A2E692B4A2E538
:1002A30092B3A2E492B2120291120273A2E392B544
:1002B300A2E292B4A2E192B3A2E092B2120291221C
:1002C300D291020299C291020299C293C2927433EB
:1002D3001202C874331202C874321202C87428128C
:1002E30002C8740C1202C874011202C8C0027A0256
:1002F30012027ED00222E49360061202C3A380F6A8
:1003030022444044800202C8C0E0E8C4540F443091
:100313001202C3E8540F44301202C3D0E0227465C2
:100323006D70657261747572653A207878430D0A51
:04033300000D0A00AF
:1003370079DE78A6D8FED9FA438780759852759BDF
:1003470000759AF4759B1E223099FDC299F5992282
:10035700E493600612034FA380F622C0E0E8C4547A
:100367000F443012034FE8540F443012034FD0E0CC
:100377002248656C6C6F2C20576F726C64210D0AD4
:1003870000D2A2C2A322C0E079007A08E833F8922B
:10039700A1D2A3A2A2E933F9C2A3DAF0D0E022C224
:1003A700A0780112038DE5F0C454F0D2E7F81203E8
:1003B7008DE95403FF785512038DE9FED2A022D2AE
:1003C700A075817F75C70075CF00120337120388A8
:1003D7001202CDC0E0740114120306D0E0C083C03E
:1003E70082C0E09003211202F9D0E0D082D0837559
:1003F700F0001203A68E318F3275350075361075F1
:10040700370075380012017D7535F6753627753753
:100417000075380012020A753511753601753700F7
:100427007538001200E9120003E539C000A8391237
:100437000362D000C0E0740E14120306D0E0C000BF
:10044700A83912030BD000E53990033412035794EF
:1004570030403AD2B7E53994275037D2A7C0027A4D
:100467003212027ED002C0027A3212027ED002C05D
:10047700027A3212027ED002C0027A3212027ED093
:1004870002C0027A3212027ED0020203F6C2B7021B
:07049700045CC2A70204642B
:00000001FF
