:1000000002002E750800E4F50EF50FE4F510F51169
:1000100022000000000000000000000000000000BE
:1000200000000000000000000000000202017581D5
:100030003C120198E582600302009A780079007A08
:10004000007B007C007D00EC4D601C88828983E48D
:1000500093A3A882A9838A828B83F0A3AA82AB830D
:100060001CBCFFE31D80E07582007583007C007D71
:1000700000EC4D600AE4F0A31CBCFFF51D80F27596
:1000800082007583007C007D00EC4D600AE4F0A3E3
:100090001CBCFFF51D80F212000312030380FE1B3F
:1000A0005B324A00417574686F723A204B696E6723
:1000B00073746F6E204368656E2E0D0A4368656326
:1000C0006B2070696E732050322E3020616E642078
:1000D00050322E31207769746820746865206F7300
:1000E00063696C6C6F73636F70652E0D0A0A005044
:1000F0006C6561736520656E746572207468652037
:100100007370656564202832206469676974732997
:100110003A000A546865207370656564206973202D
:1001200073657420746F2025640A00506C656173D8
:100130006520656E746572207468652064697265F7
:100140006374696F6E20283020666F7220434357B6
:100150002C3120666F72204357293A000A436C6F96
:10016000636B7769736520726F746174696F6E0A6F
:10017000000A436F756E746572436C6F636B7769C9
:10018000736520726F746174696F6E0A003C4E4F24
:1001900020464C4F41543E0075A7007597DE759779
:1001A000AD75FF8075EF0675A71075C12075A700A6
:1001B00075A90075A900E5A930E7FB75A90375A924
:1001C00003E5A930E7FB43A41075E10175E2007572
:1001D000E340759810758DE6858D8B53890F4389A3
:1001E00020D28ED29975C800438E1075CAE075CBA7
:1001F000E375CEFF75CFFFD2ADD2CAD2AF75820004
:1002000022C0E0C0F0C002C003C0D075D000C2CF91
:100210000508E508249B5003750800E510451160AA
:100220001CAA087B00C3E50E9AE50F64808BF0637F
:10023000F08095F09200B392A0C2A1801AC2A0AA49
:10024000087B00C3E50E9AE50F64808BF063F080B5
:1002500095F09200B392A1D0D0D003D002D0F0D0CC
:10026000E03285821485831585F016E4F517F518BC
:10027000E51224FFFFE51334FFF879007A00C3E9A3
:100280009FEA648088F063F08095F05059C002C006
:1002900007C000C0011204FCAB82D001D000D0071F
:1002A000D002BB0A028003BB0D1DE5172514FCE537
:1002B000183515FDAE168C828D838EF0E412050F75
:1002C00085178285188322E92514FCEA3515FDAED1
:1002D000168C828D838EF0EB12050F09B900010A8E
:1002E00089178A188098E5172514FAE5183515FB43
:1002F000AC168A828B838CF0E412050F85128285FE
:10030000138322749FC0E07400C0E07480C0E012C8
:1003100004DB15811581158174A4C0E07400C0E070
:100320007480C0E01204DB15811581158174EFC063
:10033000E07400C0E07480C0E01204DB1581158118
:100340001581751203E4F51390000975F04012024F
:100350006290000975F0401203E285820E85830FDA
:10036000C00EC00F7412C0E07401C0E07480C0E021
:100370001204DBE58124FBF581742BC0E07401C01D
:10038000E07480C0E01204DB1581158115817512BF
:1003900002E4F51390000C75F04012026290000C1C
:1003A00075F0401203E2858210858311E510451136
:1003B0006018745CC0E07401C0E07480C0E0120496
:1003C000DB15811581158102032D7471C0E0740164
:1003D000C0E07480C0E01204DB1581158115810234
:1003E000032DAA82AB83ACF07D007E008A078B00D0
:1003F0008C018F82888389F0120528F5226035C32D
:1004000074B98522F063F08095F04008E52264809D
:1004100094B050208F82888389F0120528F52274C9
:100420002DB52202800E742BB5220280070FBF006B
:10043000C10880BE8F02880389048F82888389F077
:10044000120528FFBF2D03D38001C39201BF2D02E7
:100450008003BF2B050ABA00010B8A828B838CF0C4
:10046000120528FF604BC3EF648094B0404374B919
:100470008FF063F08095F040388D1B8E1C90000A41
:10048000C002C003C004C007120544AD82AE83D0D1
:1004900007D004D003D002EF3395E0F8EF24D0FF6B
:1004A000E834FFF8EF2DFDE83EFE0ABA00AC0B8001
:1004B000A9300109C3E49DFAE49EFB80048D028EFD
:1004C000038A828B8322020B81858230858331856A
:1004D000F032851A339004C60205EAC019858119E5
:1004E000E51924FBF533E51924FBF886300886313D
:1004F0000886329004C61205EAD0192210980280AC
:10050000FBAA998A82C002120B81D0028A82222021
:10051000F71030F6118883A88220F507F6A88375B6
:10052000830022F280F7F02220F71430F61488833B
:10053000A88220F507E6A88375830022E280F7E40D
:100540009322E022E582851BF0A4C582C0F0851CC1
:10055000F0A4D0F025F0C583851BF0A42583F58396
:1005600022AA827472C0E07405C0E0C022C0238A4F
:1005700082220529E4B52902052A22AA8274302A9A
:10058000FA24C6500A74072AFA3002034302208A6A
:1005900082020561E582FAC4540FF582C002120599
:1005A0007BD002740F5AF58202057BAA24AB25ACDE
:1005B00026AD27AE28752F20EE2EFEED235401FF29
:1005C0004206EA2AFAEB33FBEC33FCED33FDC3EED3
:1005D000952B4008EEC3952BFE430201D52FD98AF7
:1005E000248B258C268D278E2822858222858323A5
:1005F000E4F529F52AAA30AB31AC328A828B838CA0
:10060000F0120528FD74012AF530E43BF5318C32F7
:10061000EDFA7003020B7ABA25028003020B72C254
:1006200006C207C208C209C20AC20BC20CC20DC26E
:1006300003C204C205752B00752C00752DFFAB306D
:10064000AC31AD328B828C838DF0120528FAA3ABCE
:1006500082AC838B308C318D32BA25078A821205A9
:100660006180928A06BE3000402E8A06EE24C64083
:100670002774FFB52D13E52C75F00AA4FEEA24D0EB
:100680002EF52C70BFD20780BBE52D75F00AA4FEB5
:10069000EA24D02EF52D80ACBA2E0A74FFB52DA415
:1006A000752D00809F8A06BE6100400E8A06EE24EA
:1006B0008540075302DFD2028002C202BA200280C4
:1006C00075BA2303020745BA2A0302074ABA2B0266
:1006D000805FBA2D028055BA4202805FBA4303029E
:1006E000078FBA44030208CABA45030208E4BA46AF
:1006F000030208E0BA47030208E8BA49030208CA3D
:10070000BA4C02803BBA4E030208ECBA4F0302080F
:10071000D1BA5003020863BA53030207B3BA5503B0
:100720000208D6BA58030208DB020916D2060206EE
:1007300044D208020644D209020644D20B020644FF
:10074000D20C020644D20D02064474FFB52D2030AF
:100750000B0BE53314F88833862C020644E533246A
:10076000FEF888338606088607188E2C0206443069
:100770000B0BE53314F88833862D020644E5332449
:10078000FEF888338606088607188E2D0206443048
:100790000B0AE53314F888338602800FE53324FE14
:1007A000F888338603088604188B028A8212056152
:1007B00002091BE53324FDF8883386030886040804
:1007C000860518188B248C258D268B828C838DF0C2
:1007D000120B96AB82AC838B2E74FFB52D03852E46
:1007E0002D20061DC3E52E952C5016E52CC3952E05
:1007F000F52CAB2C152CEB6008758220120561805E
:10080000F18524828525838526F0120528FBFA6070
:1008100029AB2D152DC3E464808BF063F08095F037
:1008200050188A82120561AB24AC25AD260BBB00A3
:10083000010C8B248C258D2680C720060302091B02
:10084000C3E52E952C400302091BE52CC3952EF51C
:100850002CAB2C152CEB700302091B7582201205A2
:100860006180EEE53324FDF88833860308860408AA
:10087000860518188B248C258D26E526FB30E70489
:100880007A438013EB546060047A50800AEB30E6C0
:10089000047A4980027A588A82C002120561758200
:1008A0003A12056175823012056175827812056110
:1008B000D002BA4902800BBA500280068525821206
:1008C00005948524821205948051D20A752B0A80E2
:1008D0004A752B088045752B0A8040752B10803B8C
:1008E000D2038037D2048033D205802FE53324FD34
:1008F000F88833860308860408860518188B248C2C
:10090000258D268B828C838DF0E52912050FA3E5BA
:100910002A12050F80058A82120561200306200431
:100920000330055AE53324FCF8883386030886042F
:100930000886050886061818188B248C258D268EA7
:100940002775248D752501752680852434852535E8
:1009500085263674012534FEE43535FFAB368E240A
:100960008F258B268534828535838536F0120528C0
:10097000FBFA70030205F58A8212056180CCE52B33
:1009800070030205F57B3C300B2BE53314F88833FC
:10099000E6FC3395E0FDFEFF8C248D258E268F2707
:1009A000200A5EAC247D007E007F008C248D258E85
:1009B000268F27804C300C1FE53324FCF8883386C3
:1009C000040886050886060886071818188C248DE2
:1009D000258E268F27802AE53324FEF88833860467
:1009E00008860518ED3395E0FEFF8C248D258E26B4
:1009F0008F27200A0CAC24AD257E007F008E268F29
:100A000027300D43E52445254526452760397408E0
:100A1000B52B0C758230C003120561D00380287499
:100A200010B52B23758230C003120561D00330024C
:100A30000C758278C003120561D003800A75825854
:100A4000C003120561D003300A25AC24AD25AE26C3
:100A5000E527FF30E717C3E49CFCE49DFDE49EFE20
:100A6000E49FFF8C248D258E268F278002C20A7575
:100A70002E00D20E8B00752800C0001205ABD000EE
:100A8000200E0DE528C4FCE6FD4CF6188803800214
:100A9000A628052EB20EE52445254526452770D605
:100AA0008803E52C7003752C0120071A200617E532
:100AB0002E04FCC3952C500E758220C003120561D4
:100AC000D003152C80E9300A0E75822DC003120563
:100AD00061D003152C8024E52E602030080E75822D
:100AE0002BC003120561D003152C800F30090C7543
:100AF0008220C003120561D003152C20061EAC2CE9
:100B0000152CC3E52E9C50273007047C3080027CD6
:100B1000208C82C003120561D00380E2C3E52E95CC
:100B20002C5009E52CC3952EF52C8003752C008BD9
:100B300000AB2E152EEB6022B20E200E0A08E6C482
:100B4000540FFB8B2880078603740F5BF5288528DC
:100B500082C00012057BD00080D72006030205F575
:100B6000AB2C152CEB70030205F575822012056184
:100B700080EE8A821205610205F5852982852A8325
:100B800022AA82BA0A0810990280FB75990D109961
:100B90000280FB8A9922AA82AB83ACF07D007E00A2
:100BA0008A828B838CF0120528FFA3AA82AB83EF85
:100BB00060070DBD00EA0E80E78D828E8322000063
:00000001FF
