:1000000002002E752300E4F529F52AE4F52BF52CE2
:1000100022000000000000000000000000000000BE
:10002000000000000000000000000002022F7581A7
:10003000591201C6E582600302009A780079007ABD
:10004000007B007C007D00EC4D601C88828983E48D
:1000500093A3A882A9838A828B83F0A3AA82AB830D
:100060001CBCFFE31D80E07582007583007C007D71
:1000700000EC4D600AE4F0A31CBCFFF51D80F27596
:1000800082007583007C007D00EC4D600AE4F0A3E3
:100090001CBCFFF51D80F21200031204DF80FE1B62
:1000A0005B324A00417574686F723A204B696E6723
:1000B00073746F6E20616E64205361762E0D0A4357
:1000C0006865636B2070696E732050322E3020613A
:1000D0006E642050322E3120776974682074686510
:1000E000206F7363696C6C6F73636F70652E0D0A9C
:1000F0000A00506C6561736520656E7465722074CA
:1001000068652073706565642028322064696769BA
:100110007473293A000A5468652073706565642019
:1001200069732073657420746F2025640A00506C15
:100130006561736520656E746572207468652064FE
:100140006972656374696F6E20283120666F722052
:10015000666F72776172642C203020666F72206245
:1001600061636B77617264293A000A436C6F636B59
:100170007769736520726F746174696F6E0A0046E7
:100180006F7277617264000A436F756E74657243B3
:100190006C6F636B7769736520726F746174696FDC
:1001A0006E0A004261636B7761726400537065652B
:1001B0006420697320252E336420003C4E4F204676
:1001C0004C4F41543E0075A7007597DE7597AD758D
:1001D000FF8075EF0675A71075C12075A70075A97A
:1001E0000075A900E5A930E7FB75A90375A903E52A
:1001F000A930E7FB43A41075E10175E20075E34007
:10020000759810758DE6858D8B53890F438920D2A3
:100210008ED29975C800438E1075CAE075CBE37510
:10022000CEFF75CFFFD2ADD2CAD2AF75820022C049
:10023000E0C0F0C002C003C0D075D000C2CF05231B
:10024000E523249B5003752300E52B452C6034AA3D
:10025000237B00C3E5299AE52A64808BF063F08054
:1002600095F09200B392A0C296AA237B00C3E52921
:100270009AE52A64808BF063F08095F09200B39247
:10028000978032C2A0AA237B00C3E5299AE52A649D
:10029000808BF063F08095F09200B39296AA237B56
:1002A00000C3E5299AE52A64808BF063F08095F01D
:1002B0009200B39297D0D0D003D002D0F0D0E032E9
:1002C000AA82438E407592B87593FF859294859368
:1002D000957591047B00C3EB9A500BE59130E7FBD9
:1002E00053917F0B80F075910022AA82AB837C0032
:1002F0007D00C3EC9AED9B502B7E00BE0400501D88
:100300007582FAC002C003C004C005C0061202C054
:10031000D006D005D004D003D0020E80DE0CBC0085
:10032000D10D80CE22D2A57582281202C0C2A5228C
:10033000AA828AE0A2E792A1A2E692A2A2E592A3F3
:10034000A2E492A4C0021203257582281202C0D032
:10035000028AE0A2E392A1A2E292A2A2E192A3A267
:10036000E092A4020325AA82D2A68A8212033090C8
:1003700000020202EAAA82C2A68A82120330900018
:10038000050202EAC2A59000141202EA7582331235
:100390000375758233120375758232120375758287
:1003A0002812037575820C1203757582011203758C
:1003B0009000140202EAAA82AB83ACF07402B52D5D
:1003C000047DC080027D808D82C002C003C0041203
:1003D00003759000051202EAD004D003D0027D001C
:1003E0007E00ED2AFFEE3BF88C018F82888389F036
:1003F000120634FF60208F82C002C003C004C00513
:10040000C006120366D006D005D004D003D0020D7A
:10041000BD00CF0E80CC3001248D028E03C3EA9440
:1004200010EB648094805015758220C002C00312C6
:100430000366D003D0020ABA00E30B80E022858273
:100440003085833185F032E4F533F534E52E24FF31
:10045000FFE52F34FFF879007A00C3E99FEA648052
:1004600088F063F08095F05059C002C007C000C00A
:100470000112076AAB82D001D000D007D002BB0ABC
:10048000028003BB0D1DE5332530FCE5343531FD1D
:10049000AE328C828D838EF0E412077D85338285A7
:1004A000348322E92530FCEA3531FDAE328C828D71
:1004B000838EF0EB12077D09B900010A89338A3473
:1004C0008098E5332530FAE5343531FBAC328A8249
:1004D0008B838CF0E412077D852E82852F83221278
:1004E0000384749FC0E07400C0E07480C0E0120711
:1004F0004915811581158174A4C0E07400C0E074B1
:1005000080C0E012074915811581158174F2C0E0A1
:100510007400C0E07480C0E0120749158115811590
:1005200081752E03E4F52F90002475F04012043EEF
:1005300090002475F04012065085822985832AC0D8
:1005400029C02A7415C0E07401C0E07480C0E012B4
:100550000749E58124FBF581742EC0E07401C0E0F9
:100560007480C0E0120749158115811581752E022E
:10057000E4F52F90002775F04012043E9000277597
:10058000F04012065085822B85832CE52B452C608C
:1005900025746AC0E07401C0E07480C0E0120749AD
:1005A000158115811581752D01C20190017F75F0AE
:1005B000801203B680237487C0E07401C0E07480A9
:1005C000C0E0120749158115811581752D01C20101
:1005D0009001A375F0801203B6C029C02A74ACC084
:1005E000E07401C0E07480C0E07435C0E07400C005
:1005F000E07440C0E01207E5E58124F8F581752D2F
:1006000002C20190003575F0401203B6C029C02A1D
:1006100074ACC0E07401C0E07480C0E07435C0E028
:100620007400C0E07440C0E01207E5E58124F8F5ED
:100630008102050C20F71430F6148883A88220F577
:1006400007E6A88375830022E280F7E49322E02284
:10065000AA82AB83ACF07D007E008A078B008C0100
:100660008F82888389F0120634F5456035C374B9EA
:100670008545F063F08095F04008E545648094B0CE
:1006800050208F82888389F0120634F545742DB589
:100690004502800E742BB5450280070FBF00C108CC
:1006A00080BE8F02880389048F82888389F01206B6
:1006B00034FFBF2D03D38001C39202BF2D028003FC
:1006C000BF2B050ABA00010B8A828B838CF01206BD
:1006D00034FF604BC3EF648094B0404374B98FF033
:1006E00063F08095F040388D118E1290000AC002A0
:1006F000C003C004C00712082BAD82AE83D007D060
:1007000004D003D002EF3395E0F8EF24D0FFE834B3
:10071000FFF8EF2DFDE83EFE0ABA00AC0B80A930D1
:100720000209C3E49DFAE49EFB80048D028E038AD5
:10073000828B8322020E6885825385835485F0550F
:100740008510569007340208D1C008858108E50855
:1007500024FBF556E50824FBF886530886540886E2
:10076000559007341208D1D0082210980280FBAAB5
:10077000998A82C002120E68D0028A822220F71063
:1007800030F6118883A88220F507F6A883758300C8
:1007900022F280F7F022AA82AB09AC0AAD0B8B8261
:1007A0008C838DF0EA12077D0509E4B50902050A7C
:1007B0002285820985830A85F00B850C53850D54AB
:1007C000850E55850F569007961208D1AA82AB83E5
:1007D000AC09AD0AAE0B8C828D838EF0E412077DDE
:1007E0008A828B8322C008858108E50824F8F556A3
:1007F000E50824FBF8860908860A08860BE5082424
:10080000F8F886530886540886559007961208D142
:10081000AA82AB83AC09AD0AAE0B8C828D838EF0BD
:10082000E412077D8A828B83D00822E5828511F04D
:10083000A4C582C0F08512F0A4D0F025F0C5838550
:1008400011F0A42583F58322AA827459C0E07408AC
:10085000C0E0C045C0468A8222054CE4B54C020582
:100860004D22AA8274302AFA24C6500A74072AFA42
:100870003003034302208A82020848E582FAC45406
:100880000FF582C002120862D002740F5AF582027C
:100890000862AA47AB48AC49AD4AAE4B755220EE50
:1008A0002EFEED235401FF4206EA2AFAEB33FBEC5D
:1008B00033FCED33FDC3EE954E4008EEC3954EFE7E
:1008C000430201D552D98A478B488C498D4A8E4BB9
:1008D00022858245858346E4F54CF54DAA53AB54F9
:1008E000AC558A828B838CF0120634FD74012AF594
:1008F00053E43BF5548C55EDFA7003020E61BA25B2
:10090000028003020E59C207C208C209C20AC20B02
:10091000C20CC20DC20EC204C205C206754E0075DD
:100920004F007550FFAB53AC54AD558B828C838D0B
:10093000F0120634FAA3AB82AC838B538C548D55E2
:10094000BA25078A8212084880928A06BE30004083
:100950002E8A06EE24C6402774FFB55013E54F7566
:10096000F00AA4FEEA24D02EF54F70BFD20880BB57
:10097000E55075F00AA4FEEA24D02EF55080ACBAFA
:100980002E0A74FFB550A4755000809F8A06BE6180
:1009900000400E8A06EE248540075302DFD2038012
:1009A00002C203BA20028075BA2303020A2CBA2AB3
:1009B00003020A31BA2B02805FBA2D028055BA4277
:1009C00002805FBA4303020A76BA4403020BB1BA4B
:1009D0004503020BCBBA4603020BC7BA4703020B0F
:1009E000CFBA4903020BB1BA4C02803BBA4E0302A4
:1009F0000BD3BA4F03020BB8BA5003020B4ABA53D7
:100A000003020A9ABA5503020BBDBA5803020BC27D
:100A1000020BFDD20702092BD20902092BD20A02CE
:100A2000092BD20C02092BD20D02092BD20E02097E
:100A30002B74FFB55020300C0BE55614F888568601
:100A40004F02092BE55624FEF888568606088607CD
:100A5000188E4F02092B300C0BE55614F888568679
:100A60005002092BE55624FEF888568606088607AC
:100A7000188E5002092B300C0AE55614F888568659
:100A800002800FE55624FEF888568603088604186F
:100A90008B028A82120848020C02E55624FDF8886F
:100AA00056860308860408860518188B478C488DDF
:100AB000498B828C838DF0120E7DAB82AC838B517F
:100AC00074FFB5500385515020071DC3E551954F64
:100AD0005016E54FC39551F54FAB4F154FEB6008DE
:100AE00075822012084880F18547828548838549B0
:100AF000F0120634FBFA6029AB501550C3E4648051
:100B00008BF063F08095F050188A82120848AB474A
:100B1000AC48AD490BBB00010C8B478C488D49801C
:100B2000C7200703020C02C3E551954F4003020C96
:100B300002E54FC39551F54FAB4F154FEB700302D4
:100B40000C0275822012084880EEE55624FDF888D4
:100B500056860308860408860518188B478C488D2E
:100B600049E549FB30E7047A438013EB54606004A5
:100B70007A50800AEB30E6047A4980027A588A82F9
:100B8000C00212084875823A12084875823012086D
:100B900048758278120848D002BA4902800BBA50D0
:100BA00002800685488212087B85478212087B8076
:100BB00051D20B754E0A804A754E088045754E0A13
:100BC0008040754E10803BD2048037D2058033D2EE
:100BD00006802FE55624FDF888568603088604080B
:100BE000860518188B478C488D498B828C838DF035
:100BF000E54C12077DA3E54D12077D80058A821220
:100C0000084820040620050330065AE55624FCF85F
:100C1000885686030886040886050886061818186C
:100C20008B478C488D498E4A7547BB75480175497D
:100C30008085475785485885495974012557FEE4F2
:100C40003558FFAB598E478F488B49855782855859
:100C5000838559F0120634FBFA70030208DC8A829D
:100C600012084880CCE54E70030208DC7B18300C7B
:100C70002BE55614F88856E6FC3395E0FDFEFF8C14
:100C8000478D488E498F4A200B5EAC477D007E0021
:100C90007F008C478D488E498F4A804C300D1FE570
:100CA0005624FCF8885686040886050886060886B9
:100CB000071818188C478D488E498F4A802AE556A8
:100CC00024FEF88856860408860518ED3395E0FE64
:100CD000FF8C478D488E498F4A200B0CAC47AD489E
:100CE0007E007F008E498F4A300E43E547454845D8
:100CF00049454A60397408B54E0C758230C00312FC
:100D00000848D00380287410B54E23758230C00384
:100D1000120848D00330030C758278C003120848CB
:100D2000D003800A758258C003120848D003300BE4
:100D300025AC47AD48AE49E54AFF30E717C3E49C10
:100D4000FCE49DFDE49EFEE49FFF8C478D488E49A8
:100D50008F4A8002C20B755100D20F8B00754B0079
:100D6000C000120892D000200F0DE54BC4FCE6FD38
:100D70004CF61888038002A64B0551B20FE5474593
:100D8000484549454A70D68803E54F7003754F01C1
:100D900020081A200717E55104FCC3954F500E7523
:100DA0008220C003120848D003154F80E9300B0E93
:100DB00075822DC003120848D003154F8024E551D9
:100DC000602030090E75822BC003120848D003152D
:100DD0004F800F300A0C758220C003120848D003E0
:100DE000154F20071EAC4F154FC3E5519C502730BF
:100DF00008047C3080027C208C82C003120848D01A
:100E00000380E2C3E551954F5009E54FC39551F575
:100E10004F8003754F008B00AB511551EB6022B230
:100E20000F200F0A08E6C4540FFB8B4B8007860384
:100E3000740F5BF54B854B82C000120862D00080B6
:100E4000D72007030208DCAB4F154FEB70030208F5
:100E5000DC75822012084880EE8A82120848020857
:100E6000DC854C82854D8322AA82BA0A0810990239
:100E700080FB75990D10990280FB8A9922AA82AB9A
:100E800083ACF07D007E008A828B838CF012063466
:100E9000FFA3AA82AB83EF60070DBD00EA0E80E7D7
:100EA0008D828E8322000000000000000000000000
:00000001FF
